{
  "contractName": "DonationToken",
  "abi": [
    {
      "inputs": [],
      "stateMutability": "nonpayable",
      "type": "constructor"
    },
    {
      "anonymous": false,
      "inputs": [
        {
          "indexed": true,
          "internalType": "address",
          "name": "owner",
          "type": "address"
        },
        {
          "indexed": true,
          "internalType": "address",
          "name": "spender",
          "type": "address"
        },
        {
          "indexed": false,
          "internalType": "uint256",
          "name": "value",
          "type": "uint256"
        }
      ],
      "name": "Approval",
      "type": "event"
    },
    {
      "anonymous": false,
      "inputs": [
        {
          "indexed": true,
          "internalType": "address",
          "name": "previousOwner",
          "type": "address"
        },
        {
          "indexed": true,
          "internalType": "address",
          "name": "newOwner",
          "type": "address"
        }
      ],
      "name": "OwnershipTransferred",
      "type": "event"
    },
    {
      "anonymous": false,
      "inputs": [
        {
          "indexed": true,
          "internalType": "address",
          "name": "from",
          "type": "address"
        },
        {
          "indexed": true,
          "internalType": "address",
          "name": "to",
          "type": "address"
        },
        {
          "indexed": false,
          "internalType": "uint256",
          "name": "value",
          "type": "uint256"
        }
      ],
      "name": "Transfer",
      "type": "event"
    },
    {
      "inputs": [],
      "name": "MAX_SUPPLY",
      "outputs": [
        {
          "internalType": "uint256",
          "name": "",
          "type": "uint256"
        }
      ],
      "stateMutability": "view",
      "type": "function",
      "constant": true
    },
    {
      "inputs": [
        {
          "internalType": "address",
          "name": "owner",
          "type": "address"
        },
        {
          "internalType": "address",
          "name": "spender",
          "type": "address"
        }
      ],
      "name": "allowance",
      "outputs": [
        {
          "internalType": "uint256",
          "name": "",
          "type": "uint256"
        }
      ],
      "stateMutability": "view",
      "type": "function",
      "constant": true
    },
    {
      "inputs": [
        {
          "internalType": "address",
          "name": "spender",
          "type": "address"
        },
        {
          "internalType": "uint256",
          "name": "amount",
          "type": "uint256"
        }
      ],
      "name": "approve",
      "outputs": [
        {
          "internalType": "bool",
          "name": "",
          "type": "bool"
        }
      ],
      "stateMutability": "nonpayable",
      "type": "function"
    },
    {
      "inputs": [
        {
          "internalType": "address",
          "name": "account",
          "type": "address"
        }
      ],
      "name": "balanceOf",
      "outputs": [
        {
          "internalType": "uint256",
          "name": "",
          "type": "uint256"
        }
      ],
      "stateMutability": "view",
      "type": "function",
      "constant": true
    },
    {
      "inputs": [],
      "name": "decimals",
      "outputs": [
        {
          "internalType": "uint8",
          "name": "",
          "type": "uint8"
        }
      ],
      "stateMutability": "view",
      "type": "function",
      "constant": true
    },
    {
      "inputs": [
        {
          "internalType": "address",
          "name": "spender",
          "type": "address"
        },
        {
          "internalType": "uint256",
          "name": "subtractedValue",
          "type": "uint256"
        }
      ],
      "name": "decreaseAllowance",
      "outputs": [
        {
          "internalType": "bool",
          "name": "",
          "type": "bool"
        }
      ],
      "stateMutability": "nonpayable",
      "type": "function"
    },
    {
      "inputs": [
        {
          "internalType": "address",
          "name": "spender",
          "type": "address"
        },
        {
          "internalType": "uint256",
          "name": "addedValue",
          "type": "uint256"
        }
      ],
      "name": "increaseAllowance",
      "outputs": [
        {
          "internalType": "bool",
          "name": "",
          "type": "bool"
        }
      ],
      "stateMutability": "nonpayable",
      "type": "function"
    },
    {
      "inputs": [],
      "name": "name",
      "outputs": [
        {
          "internalType": "string",
          "name": "",
          "type": "string"
        }
      ],
      "stateMutability": "view",
      "type": "function",
      "constant": true
    },
    {
      "inputs": [],
      "name": "owner",
      "outputs": [
        {
          "internalType": "address",
          "name": "",
          "type": "address"
        }
      ],
      "stateMutability": "view",
      "type": "function",
      "constant": true
    },
    {
      "inputs": [],
      "name": "renounceOwnership",
      "outputs": [],
      "stateMutability": "nonpayable",
      "type": "function"
    },
    {
      "inputs": [],
      "name": "symbol",
      "outputs": [
        {
          "internalType": "string",
          "name": "",
          "type": "string"
        }
      ],
      "stateMutability": "view",
      "type": "function",
      "constant": true
    },
    {
      "inputs": [],
      "name": "totalSupply",
      "outputs": [
        {
          "internalType": "uint256",
          "name": "",
          "type": "uint256"
        }
      ],
      "stateMutability": "view",
      "type": "function",
      "constant": true
    },
    {
      "inputs": [
        {
          "internalType": "address",
          "name": "to",
          "type": "address"
        },
        {
          "internalType": "uint256",
          "name": "amount",
          "type": "uint256"
        }
      ],
      "name": "transfer",
      "outputs": [
        {
          "internalType": "bool",
          "name": "",
          "type": "bool"
        }
      ],
      "stateMutability": "nonpayable",
      "type": "function"
    },
    {
      "inputs": [
        {
          "internalType": "address",
          "name": "from",
          "type": "address"
        },
        {
          "internalType": "address",
          "name": "to",
          "type": "address"
        },
        {
          "internalType": "uint256",
          "name": "amount",
          "type": "uint256"
        }
      ],
      "name": "transferFrom",
      "outputs": [
        {
          "internalType": "bool",
          "name": "",
          "type": "bool"
        }
      ],
      "stateMutability": "nonpayable",
      "type": "function"
    },
    {
      "inputs": [
        {
          "internalType": "address",
          "name": "newOwner",
          "type": "address"
        }
      ],
      "name": "transferOwnership",
      "outputs": [],
      "stateMutability": "nonpayable",
      "type": "function"
    },
    {
      "inputs": [
        {
          "internalType": "address",
          "name": "to",
          "type": "address"
        },
        {
          "internalType": "uint256",
          "name": "amount",
          "type": "uint256"
        }
      ],
      "name": "mint",
      "outputs": [],
      "stateMutability": "nonpayable",
      "type": "function"
    },
    {
      "inputs": [
        {
          "internalType": "address",
          "name": "donor",
          "type": "address"
        },
        {
          "internalType": "uint256",
          "name": "amount",
          "type": "uint256"
        }
      ],
      "name": "mintForDonation",
      "outputs": [],
      "stateMutability": "nonpayable",
      "type": "function"
    },
    {
      "inputs": [
        {
          "internalType": "address",
          "name": "contractAddress",
          "type": "address"
        },
        {
          "internalType": "bool",
          "name": "approved",
          "type": "bool"
        }
      ],
      "name": "setDonationContract",
      "outputs": [],
      "stateMutability": "nonpayable",
      "type": "function"
    },
    {
      "inputs": [
        {
          "internalType": "address",
          "name": "contractAddress",
          "type": "address"
        }
      ],
      "name": "isApprovedDonationContract",
      "outputs": [
        {
          "internalType": "bool",
          "name": "",
          "type": "bool"
        }
      ],
      "stateMutability": "view",
      "type": "function",
      "constant": true
    }
  ],
  "bytecode": "0x60806040523480156200001157600080fd5b506040518060400160405280600e81526020016d2237b730ba34b7b7102a37b5b2b760911b8152506040518060400160405280600381526020016244544b60e81b81525081600390805190602001906200006d929190620001fa565b50805162000083906004906020840190620001fa565b505050620000a06200009a620000bc60201b60201c565b620000c0565b620000b63369d3c21bcecceda100000062000112565b62000303565b3390565b600580546001600160a01b038381166001600160a01b0319831681179093556040519116919082907f8be0079c531659141344cd1fd0a4f28419497f9722a3daafe3b4186f6b6457e090600090a35050565b6001600160a01b0382166200016d5760405162461bcd60e51b815260206004820152601f60248201527f45524332303a206d696e7420746f20746865207a65726f206164647265737300604482015260640160405180910390fd5b8060026000828254620001819190620002a0565b90915550506001600160a01b03821660009081526020819052604081208054839290620001b0908490620002a0565b90915550506040518181526001600160a01b038316906000907fddf252ad1be2c89b69c2b068fc378daa952ba7f163c4a11628f55a4df523b3ef9060200160405180910390a35050565b8280546200020890620002c7565b90600052602060002090601f0160209004810192826200022c576000855562000277565b82601f106200024757805160ff191683800117855562000277565b8280016001018555821562000277579182015b82811115620002775782518255916020019190600101906200025a565b506200028592915062000289565b5090565b5b808211156200028557600081556001016200028a565b60008219821115620002c257634e487b7160e01b600052601160045260246000fd5b500190565b600181811c90821680620002dc57607f821691505b602082108103620002fd57634e487b7160e01b600052602260045260246000fd5b50919050565b610d4980620003136000396000f3fe608060405234801561001057600080fd5b50600436106101215760003560e01c806370a08231116100ad578063a9059cbb11610071578063a9059cbb14610250578063befd7cf014610263578063dd62ed3e1461028f578063f2304596146102a2578063f2fde38b146102b557600080fd5b806370a08231146101e9578063715018a6146102125780638da5cb5b1461021a57806395d89b4114610235578063a457c2d71461023d57600080fd5b806323b872dd116100f457806323b872dd1461018e578063313ce567146101a157806332cb6b0c146101b057806339509351146101c357806340c10f19146101d657600080fd5b806306fdde0314610126578063095ea7b31461014457806309d99bb71461016757806318160ddd1461017c575b600080fd5b61012e6102c8565b60405161013b9190610b4b565b60405180910390f35b610157610152366004610bbc565b61035a565b604051901515815260200161013b565b61017a610175366004610bbc565b610372565b005b6002545b60405190815260200161013b565b61015761019c366004610be6565b610483565b6040516012815260200161013b565b6101806b204fce5e3e2502611000000081565b6101576101d1366004610bbc565b6104a7565b61017a6101e4366004610bbc565b6104c9565b6101806101f7366004610c22565b6001600160a01b031660009081526020819052604090205490565b61017a6104d1565b6005546040516001600160a01b03909116815260200161013b565b61012e6104e5565b61015761024b366004610bbc565b6104f4565b61015761025e366004610bbc565b61056f565b610157610271366004610c22565b6001600160a01b031660009081526006602052604090205460ff1690565b61018061029d366004610c44565b61057d565b61017a6102b0366004610c77565b6105a8565b61017a6102c3366004610c22565b6105db565b6060600380546102d790610cb3565b80601f016020809104026020016040519081016040528092919081815260200182805461030390610cb3565b80156103505780601f1061032557610100808354040283529160200191610350565b820191906000526020600020905b81548152906001019060200180831161033357829003601f168201915b5050505050905090565b600033610368818585610654565b5060019392505050565b6005546001600160a01b031633148061039a57503360009081526006602052604090205460ff165b6104065760405162461bcd60e51b815260206004820152603260248201527f4f6e6c79206f776e6572206f7220617070726f76656420646f6e6174696f6e2060448201527118dbdb9d1c9858dd1cc818d85b881b5a5b9d60721b60648201526084015b60405180910390fd5b6b204fce5e3e250261100000008161041d60025490565b6104279190610ced565b11156104755760405162461bcd60e51b815260206004820152601760248201527f576f756c6420657863656564206d617820737570706c7900000000000000000060448201526064016103fd565b61047f8282610778565b5050565b600033610491858285610857565b61049c8585856108d1565b506001949350505050565b6000336103688185856104ba838361057d565b6104c49190610ced565b610654565b610406610a9f565b6104d9610a9f565b6104e36000610af9565b565b6060600480546102d790610cb3565b60003381610502828661057d565b9050838110156105625760405162461bcd60e51b815260206004820152602560248201527f45524332303a2064656372656173656420616c6c6f77616e63652062656c6f77604482015264207a65726f60d81b60648201526084016103fd565b61049c8286868403610654565b6000336103688185856108d1565b6001600160a01b03918216600090815260016020908152604080832093909416825291909152205490565b6105b0610a9f565b6001600160a01b03919091166000908152600660205260409020805460ff1916911515919091179055565b6105e3610a9f565b6001600160a01b0381166106485760405162461bcd60e51b815260206004820152602660248201527f4f776e61626c653a206e6577206f776e657220697320746865207a65726f206160448201526564647265737360d01b60648201526084016103fd565b61065181610af9565b50565b6001600160a01b0383166106b65760405162461bcd60e51b8152602060048201526024808201527f45524332303a20617070726f76652066726f6d20746865207a65726f206164646044820152637265737360e01b60648201526084016103fd565b6001600160a01b0382166107175760405162461bcd60e51b815260206004820152602260248201527f45524332303a20617070726f766520746f20746865207a65726f206164647265604482015261737360f01b60648201526084016103fd565b6001600160a01b0383811660008181526001602090815260408083209487168084529482529182902085905590518481527f8c5be1e5ebec7d5bd14f71427d1e84f3dd0314c0f7b2291e5b200ac8c7c3b925910160405180910390a3505050565b6001600160a01b0382166107ce5760405162461bcd60e51b815260206004820152601f60248201527f45524332303a206d696e7420746f20746865207a65726f20616464726573730060448201526064016103fd565b80600260008282546107e09190610ced565b90915550506001600160a01b0382166000908152602081905260408120805483929061080d908490610ced565b90915550506040518181526001600160a01b038316906000907fddf252ad1be2c89b69c2b068fc378daa952ba7f163c4a11628f55a4df523b3ef9060200160405180910390a35050565b6000610863848461057d565b905060001981146108cb57818110156108be5760405162461bcd60e51b815260206004820152601d60248201527f45524332303a20696e73756666696369656e7420616c6c6f77616e636500000060448201526064016103fd565b6108cb8484848403610654565b50505050565b6001600160a01b0383166109355760405162461bcd60e51b815260206004820152602560248201527f45524332303a207472616e736665722066726f6d20746865207a65726f206164604482015264647265737360d81b60648201526084016103fd565b6001600160a01b0382166109975760405162461bcd60e51b815260206004820152602360248201527f45524332303a207472616e7366657220746f20746865207a65726f206164647260448201526265737360e81b60648201526084016103fd565b6001600160a01b03831660009081526020819052604090205481811015610a0f5760405162461bcd60e51b815260206004820152602660248201527f45524332303a207472616e7366657220616d6f756e7420657863656564732062604482015265616c616e636560d01b60648201526084016103fd565b6001600160a01b03808516600090815260208190526040808220858503905591851681529081208054849290610a46908490610ced565b92505081905550826001600160a01b0316846001600160a01b03167fddf252ad1be2c89b69c2b068fc378daa952ba7f163c4a11628f55a4df523b3ef84604051610a9291815260200190565b60405180910390a36108cb565b6005546001600160a01b031633146104e35760405162461bcd60e51b815260206004820181905260248201527f4f776e61626c653a2063616c6c6572206973206e6f7420746865206f776e657260448201526064016103fd565b600580546001600160a01b038381166001600160a01b0319831681179093556040519116919082907f8be0079c531659141344cd1fd0a4f28419497f9722a3daafe3b4186f6b6457e090600090a35050565b600060208083528351808285015260005b81811015610b7857858101830151858201604001528201610b5c565b81811115610b8a576000604083870101525b50601f01601f1916929092016040019392505050565b80356001600160a01b0381168114610bb757600080fd5b919050565b60008060408385031215610bcf57600080fd5b610bd883610ba0565b946020939093013593505050565b600080600060608486031215610bfb57600080fd5b610c0484610ba0565b9250610c1260208501610ba0565b9150604084013590509250925092565b600060208284031215610c3457600080fd5b610c3d82610ba0565b9392505050565b60008060408385031215610c5757600080fd5b610c6083610ba0565b9150610c6e60208401610ba0565b90509250929050565b60008060408385031215610c8a57600080fd5b610c9383610ba0565b915060208301358015158114610ca857600080fd5b809150509250929050565b600181811c90821680610cc757607f821691505b602082108103610ce757634e487b7160e01b600052602260045260246000fd5b50919050565b60008219821115610d0e57634e487b7160e01b600052601160045260246000fd5b50019056fea264697066735822122006f449fce57c7c89c09a6cf20991d59ebfe0e18547a39fe8e24b1476d6a1304464736f6c634300080d0033",
  "immutableReferences": {},
  "source": "// SPDX-License-Identifier: MIT\r\npragma solidity ^0.8.0;\r\n\r\nimport \"@openzeppelin/contracts/token/ERC20/ERC20.sol\";\r\nimport \"@openzeppelin/contracts/access/Ownable.sol\";\r\n\r\ncontract DonationToken is ERC20, Ownable {\r\n    uint256 public constant MAX_SUPPLY = 10_000_000_000 * 10**18; // 1 billion tokens with 18 decimals\r\n    \r\n    constructor() ERC20(\"Donation Token\", \"DTK\") {\r\n        // Mint initial supply to the owner (1,000,000 DTK)\r\n        _mint(msg.sender, 1000000 * 10**18);\r\n    }\r\n    \r\n    // Allow the owner to mint more tokens if needed, but respect the max supply\r\n    function mint(address to, uint256 amount) public onlyOwner {\r\n        require(totalSupply() + amount <= MAX_SUPPLY, \"Would exceed max supply\");\r\n        _mint(to, amount);\r\n    }\r\n    \r\n    // Allow users to receive tokens directly when they donate\r\n    function mintForDonation(address donor, uint256 amount) external {\r\n        // This function can only be called by the Donation contract\r\n        require(msg.sender == owner() || isApprovedDonationContract(msg.sender), \r\n                \"Only owner or approved donation contracts can mint\");\r\n        require(totalSupply() + amount <= MAX_SUPPLY, \"Would exceed max supply\");\r\n        \r\n        _mint(donor, amount);\r\n    }\r\n    \r\n    // Track approved donation contracts\r\n    mapping(address => bool) private approvedDonationContracts;\r\n    \r\n    // Add or remove donation contracts that can call mintForDonation\r\n    function setDonationContract(address contractAddress, bool approved) external onlyOwner {\r\n        approvedDonationContracts[contractAddress] = approved;\r\n    }\r\n    \r\n    function isApprovedDonationContract(address contractAddress) public view returns (bool) {\r\n        return approvedDonationContracts[contractAddress];\r\n    }\r\n}",
  "sourcePath": "C:\\Users\\Pen Reyes\\Downloads\\blockchain-app\\decentralized-charity\\contracts\\DonationToken.sol",
  "compiler": {
    "name": "solc",
    "version": "0.8.13+commit.abaa5c0e.Emscripten.clang"
  },
  "schemaVersion": "3.4.16",
  "updatedAt": "2025-03-18T15:33:00.256Z",
  "networkType": "ethereum",
  "devdoc": {
    "kind": "dev",
    "methods": {
      "allowance(address,address)": {
        "details": "See {IERC20-allowance}."
      },
      "approve(address,uint256)": {
        "details": "See {IERC20-approve}. NOTE: If `amount` is the maximum `uint256`, the allowance is not updated on `transferFrom`. This is semantically equivalent to an infinite approval. Requirements: - `spender` cannot be the zero address."
      },
      "balanceOf(address)": {
        "details": "See {IERC20-balanceOf}."
      },
      "decimals()": {
        "details": "Returns the number of decimals used to get its user representation. For example, if `decimals` equals `2`, a balance of `505` tokens should be displayed to a user as `5.05` (`505 / 10 ** 2`). Tokens usually opt for a value of 18, imitating the relationship between Ether and Wei. This is the value {ERC20} uses, unless this function is overridden; NOTE: This information is only used for _display_ purposes: it in no way affects any of the arithmetic of the contract, including {IERC20-balanceOf} and {IERC20-transfer}."
      },
      "decreaseAllowance(address,uint256)": {
        "details": "Atomically decreases the allowance granted to `spender` by the caller. This is an alternative to {approve} that can be used as a mitigation for problems described in {IERC20-approve}. Emits an {Approval} event indicating the updated allowance. Requirements: - `spender` cannot be the zero address. - `spender` must have allowance for the caller of at least `subtractedValue`."
      },
      "increaseAllowance(address,uint256)": {
        "details": "Atomically increases the allowance granted to `spender` by the caller. This is an alternative to {approve} that can be used as a mitigation for problems described in {IERC20-approve}. Emits an {Approval} event indicating the updated allowance. Requirements: - `spender` cannot be the zero address."
      },
      "name()": {
        "details": "Returns the name of the token."
      },
      "owner()": {
        "details": "Returns the address of the current owner."
      },
      "renounceOwnership()": {
        "details": "Leaves the contract without owner. It will not be possible to call `onlyOwner` functions anymore. Can only be called by the current owner. NOTE: Renouncing ownership will leave the contract without an owner, thereby removing any functionality that is only available to the owner."
      },
      "symbol()": {
        "details": "Returns the symbol of the token, usually a shorter version of the name."
      },
      "totalSupply()": {
        "details": "See {IERC20-totalSupply}."
      },
      "transfer(address,uint256)": {
        "details": "See {IERC20-transfer}. Requirements: - `to` cannot be the zero address. - the caller must have a balance of at least `amount`."
      },
      "transferFrom(address,address,uint256)": {
        "details": "See {IERC20-transferFrom}. Emits an {Approval} event indicating the updated allowance. This is not required by the EIP. See the note at the beginning of {ERC20}. NOTE: Does not update the allowance if the current allowance is the maximum `uint256`. Requirements: - `from` and `to` cannot be the zero address. - `from` must have a balance of at least `amount`. - the caller must have allowance for ``from``'s tokens of at least `amount`."
      },
      "transferOwnership(address)": {
        "details": "Transfers ownership of the contract to a new account (`newOwner`). Can only be called by the current owner."
      }
    },
    "version": 1
  },
  "userdoc": {
    "kind": "user",
    "methods": {},
    "version": 1
  }
}