{
  "contractName": "Donation",
  "abi": [
    {
      "inputs": [],
      "stateMutability": "nonpayable",
      "type": "constructor"
    },
    {
      "anonymous": false,
      "inputs": [
        {
          "indexed": true,
          "internalType": "address",
          "name": "donor",
          "type": "address"
        },
        {
          "indexed": true,
          "internalType": "address",
          "name": "organization",
          "type": "address"
        },
        {
          "indexed": false,
          "internalType": "uint256",
          "name": "amount",
          "type": "uint256"
        }
      ],
      "name": "Donated",
      "type": "event"
    },
    {
      "anonymous": false,
      "inputs": [
        {
          "indexed": true,
          "internalType": "address",
          "name": "organization",
          "type": "address"
        }
      ],
      "name": "OrganizationAdded",
      "type": "event"
    },
    {
      "anonymous": false,
      "inputs": [
        {
          "indexed": true,
          "internalType": "address",
          "name": "organization",
          "type": "address"
        },
        {
          "indexed": false,
          "internalType": "uint256",
          "name": "amount",
          "type": "uint256"
        },
        {
          "indexed": false,
          "internalType": "uint256",
          "name": "timestamp",
          "type": "uint256"
        }
      ],
      "name": "Withdrawn",
      "type": "event"
    },
    {
      "inputs": [
        {
          "internalType": "address",
          "name": "",
          "type": "address"
        }
      ],
      "name": "donations",
      "outputs": [
        {
          "internalType": "uint256",
          "name": "",
          "type": "uint256"
        }
      ],
      "stateMutability": "view",
      "type": "function",
      "constant": true
    },
    {
      "inputs": [
        {
          "internalType": "address",
          "name": "",
          "type": "address"
        }
      ],
      "name": "organizationBalances",
      "outputs": [
        {
          "internalType": "uint256",
          "name": "",
          "type": "uint256"
        }
      ],
      "stateMutability": "view",
      "type": "function",
      "constant": true
    },
    {
      "inputs": [
        {
          "internalType": "address",
          "name": "",
          "type": "address"
        }
      ],
      "name": "organizations",
      "outputs": [
        {
          "internalType": "bool",
          "name": "",
          "type": "bool"
        }
      ],
      "stateMutability": "view",
      "type": "function",
      "constant": true
    },
    {
      "inputs": [],
      "name": "owner",
      "outputs": [
        {
          "internalType": "address",
          "name": "",
          "type": "address"
        }
      ],
      "stateMutability": "view",
      "type": "function",
      "constant": true
    },
    {
      "inputs": [
        {
          "internalType": "address",
          "name": "_organization",
          "type": "address"
        }
      ],
      "name": "addOrganization",
      "outputs": [],
      "stateMutability": "nonpayable",
      "type": "function"
    },
    {
      "inputs": [
        {
          "internalType": "address",
          "name": "_organization",
          "type": "address"
        }
      ],
      "name": "donate",
      "outputs": [],
      "stateMutability": "payable",
      "type": "function",
      "payable": true
    },
    {
      "inputs": [
        {
          "internalType": "uint256",
          "name": "amount",
          "type": "uint256"
        }
      ],
      "name": "withdraw",
      "outputs": [],
      "stateMutability": "nonpayable",
      "type": "function"
    },
    {
      "inputs": [
        {
          "internalType": "address",
          "name": "_organization",
          "type": "address"
        }
      ],
      "name": "getBalance",
      "outputs": [
        {
          "internalType": "uint256",
          "name": "",
          "type": "uint256"
        }
      ],
      "stateMutability": "view",
      "type": "function",
      "constant": true
    },
    {
      "inputs": [
        {
          "internalType": "address",
          "name": "_user",
          "type": "address"
        }
      ],
      "name": "isOrganization",
      "outputs": [
        {
          "internalType": "bool",
          "name": "",
          "type": "bool"
        }
      ],
      "stateMutability": "view",
      "type": "function",
      "constant": true
    },
    {
      "inputs": [
        {
          "internalType": "address",
          "name": "_donor",
          "type": "address"
        }
      ],
      "name": "getTotalDonations",
      "outputs": [
        {
          "internalType": "uint256",
          "name": "",
          "type": "uint256"
        }
      ],
      "stateMutability": "view",
      "type": "function",
      "constant": true
    },
    {
      "inputs": [],
      "name": "getWithdrawalHistory",
      "outputs": [
        {
          "components": [
            {
              "internalType": "uint256",
              "name": "amount",
              "type": "uint256"
            },
            {
              "internalType": "uint256",
              "name": "timestamp",
              "type": "uint256"
            }
          ],
          "internalType": "struct Donation.WithdrawalRecord[]",
          "name": "",
          "type": "tuple[]"
        }
      ],
      "stateMutability": "view",
      "type": "function",
      "constant": true
    },
    {
      "inputs": [],
      "name": "getOrganizations",
      "outputs": [
        {
          "internalType": "address[]",
          "name": "",
          "type": "address[]"
        }
      ],
      "stateMutability": "view",
      "type": "function",
      "constant": true
    },
    {
      "inputs": [],
      "name": "getDonationsForOrganization",
      "outputs": [
        {
          "components": [
            {
              "internalType": "address",
              "name": "donor",
              "type": "address"
            },
            {
              "internalType": "uint256",
              "name": "amount",
              "type": "uint256"
            },
            {
              "internalType": "uint256",
              "name": "timestamp",
              "type": "uint256"
            }
          ],
          "internalType": "struct Donation.DonationRecord[]",
          "name": "",
          "type": "tuple[]"
        }
      ],
      "stateMutability": "view",
      "type": "function",
      "constant": true
    }
  ],
  "bytecode": "0x608060405234801561001057600080fd5b50336000806101000a81548173ffffffffffffffffffffffffffffffffffffffff021916908373ffffffffffffffffffffffffffffffffffffffff16021790555061198f806100606000396000f3fe6080604052600436106100c15760003560e01c80638da5cb5b1161007f578063c0894cfa11610059578063c0894cfa14610280578063cc6cb19a146102ab578063d68287df146102e8578063f8b2cb4f14610311576100c1565b80638da5cb5b146101ed5780639754a3a814610218578063b1ce8eab14610243576100c1565b8062362a95146100c6578063115ac45a146100e25780632e1a7d4d1461011f57806357cfb10a146101485780635a1f7406146101855780636a776ce1146101c2575b600080fd5b6100e060048036038101906100db9190611032565b61034e565b005b3480156100ee57600080fd5b5061010960048036038101906101049190611032565b610627565b6040516101169190611078565b60405180910390f35b34801561012b57600080fd5b50610146600480360381019061014191906110bf565b610670565b005b34801561015457600080fd5b5061016f600480360381019061016a9190611032565b610944565b60405161017c9190611078565b60405180910390f35b34801561019157600080fd5b506101ac60048036038101906101a79190611032565b61095c565b6040516101b99190611107565b60405180910390f35b3480156101ce57600080fd5b506101d761097c565b6040516101e49190611231565b60405180910390f35b3480156101f957600080fd5b50610202610b0e565b60405161020f9190611262565b60405180910390f35b34801561022457600080fd5b5061022d610b32565b60405161023a919061132c565b60405180910390f35b34801561024f57600080fd5b5061026a60048036038101906102659190611032565b610bc0565b6040516102779190611107565b60405180910390f35b34801561028c57600080fd5b50610295610c16565b6040516102a2919061142c565b60405180910390f35b3480156102b757600080fd5b506102d260048036038101906102cd9190611032565b610d52565b6040516102df9190611078565b60405180910390f35b3480156102f457600080fd5b5061030f600480360381019061030a9190611032565b610d6a565b005b34801561031d57600080fd5b5061033860048036038101906103339190611032565b610f86565b6040516103459190611078565b60405180910390f35b60003411610391576040517f08c379a0000000000000000000000000000000000000000000000000000000008152600401610388906114ab565b60405180910390fd5b600360008273ffffffffffffffffffffffffffffffffffffffff1673ffffffffffffffffffffffffffffffffffffffff16815260200190815260200160002060009054906101000a900460ff1661041d576040517f08c379a000000000000000000000000000000000000000000000000000000000815260040161041490611517565b60405180910390fd5b34600160003373ffffffffffffffffffffffffffffffffffffffff1673ffffffffffffffffffffffffffffffffffffffff168152602001908152602001600020600082825461046c9190611566565b9250508190555034600260008373ffffffffffffffffffffffffffffffffffffffff1673ffffffffffffffffffffffffffffffffffffffff16815260200190815260200160002060008282546104c29190611566565b92505081905550600560008273ffffffffffffffffffffffffffffffffffffffff1673ffffffffffffffffffffffffffffffffffffffff16815260200190815260200160002060405180606001604052803373ffffffffffffffffffffffffffffffffffffffff16815260200134815260200142815250908060018154018082558091505060019003906000526020600020906003020160009091909190915060008201518160000160006101000a81548173ffffffffffffffffffffffffffffffffffffffff021916908373ffffffffffffffffffffffffffffffffffffffff160217905550602082015181600101556040820151816002015550508073ffffffffffffffffffffffffffffffffffffffff163373ffffffffffffffffffffffffffffffffffffffff167f4dfff917e1fbb261a082e98cc7d43029621f6a6eb05ff3fef1510d5f1eb4857c3460405161061c9190611078565b60405180910390a350565b6000600160008373ffffffffffffffffffffffffffffffffffffffff1673ffffffffffffffffffffffffffffffffffffffff168152602001908152602001600020549050919050565b600360003373ffffffffffffffffffffffffffffffffffffffff1673ffffffffffffffffffffffffffffffffffffffff16815260200190815260200160002060009054906101000a900460ff166106fc576040517f08c379a00000000000000000000000000000000000000000000000000000000081526004016106f390611608565b60405180910390fd5b6000811161073f576040517f08c379a000000000000000000000000000000000000000000000000000000000815260040161073690611674565b60405180910390fd5b80600260003373ffffffffffffffffffffffffffffffffffffffff1673ffffffffffffffffffffffffffffffffffffffff1681526020019081526020016000205410156107c1576040517f08c379a00000000000000000000000000000000000000000000000000000000081526004016107b8906116e0565b60405180910390fd5b80600260003373ffffffffffffffffffffffffffffffffffffffff1673ffffffffffffffffffffffffffffffffffffffff16815260200190815260200160002060008282546108109190611700565b92505081905550600460003373ffffffffffffffffffffffffffffffffffffffff1673ffffffffffffffffffffffffffffffffffffffff1681526020019081526020016000206040518060400160405280838152602001428152509080600181540180825580915050600190039060005260206000209060020201600090919091909150600082015181600001556020820151816001015550503373ffffffffffffffffffffffffffffffffffffffff166108fc829081150290604051600060405180830381858888f193505050501580156108f0573d6000803e3d6000fd5b503373ffffffffffffffffffffffffffffffffffffffff167f92ccf450a286a957af52509bc1c9939d1a6a481783e142e41e2499f0bb66ebc68242604051610939929190611734565b60405180910390a250565b60026020528060005260406000206000915090505481565b60036020528060005260406000206000915054906101000a900460ff1681565b6060600360003373ffffffffffffffffffffffffffffffffffffffff1673ffffffffffffffffffffffffffffffffffffffff16815260200190815260200160002060009054906101000a900460ff16610a0a576040517f08c379a0000000000000000000000000000000000000000000000000000000008152600401610a01906117cf565b60405180910390fd5b600560003373ffffffffffffffffffffffffffffffffffffffff1673ffffffffffffffffffffffffffffffffffffffff168152602001908152602001600020805480602002602001604051908101604052809291908181526020016000905b82821015610b0557838290600052602060002090600302016040518060600160405290816000820160009054906101000a900473ffffffffffffffffffffffffffffffffffffffff1673ffffffffffffffffffffffffffffffffffffffff1673ffffffffffffffffffffffffffffffffffffffff1681526020016001820154815260200160028201548152505081526020019060010190610a69565b50505050905090565b60008054906101000a900473ffffffffffffffffffffffffffffffffffffffff1681565b60606006805480602002602001604051908101604052809291908181526020018280548015610bb657602002820191906000526020600020905b8160009054906101000a900473ffffffffffffffffffffffffffffffffffffffff1673ffffffffffffffffffffffffffffffffffffffff1681526020019060010190808311610b6c575b5050505050905090565b6000600360008373ffffffffffffffffffffffffffffffffffffffff1673ffffffffffffffffffffffffffffffffffffffff16815260200190815260200160002060009054906101000a900460ff169050919050565b6060600360003373ffffffffffffffffffffffffffffffffffffffff1673ffffffffffffffffffffffffffffffffffffffff16815260200190815260200160002060009054906101000a900460ff16610ca4576040517f08c379a0000000000000000000000000000000000000000000000000000000008152600401610c9b90611861565b60405180910390fd5b600460003373ffffffffffffffffffffffffffffffffffffffff1673ffffffffffffffffffffffffffffffffffffffff168152602001908152602001600020805480602002602001604051908101604052809291908181526020016000905b82821015610d4957838290600052602060002090600202016040518060400160405290816000820154815260200160018201548152505081526020019060010190610d03565b50505050905090565b60016020528060005260406000206000915090505481565b60008054906101000a900473ffffffffffffffffffffffffffffffffffffffff1673ffffffffffffffffffffffffffffffffffffffff163373ffffffffffffffffffffffffffffffffffffffff1614610df8576040517f08c379a0000000000000000000000000000000000000000000000000000000008152600401610def906118cd565b60405180910390fd5b600360008273ffffffffffffffffffffffffffffffffffffffff1673ffffffffffffffffffffffffffffffffffffffff16815260200190815260200160002060009054906101000a900460ff1615610e85576040517f08c379a0000000000000000000000000000000000000000000000000000000008152600401610e7c90611939565b60405180910390fd5b6001600360008373ffffffffffffffffffffffffffffffffffffffff1673ffffffffffffffffffffffffffffffffffffffff16815260200190815260200160002060006101000a81548160ff0219169083151502179055506006819080600181540180825580915050600190039060005260206000200160009091909190916101000a81548173ffffffffffffffffffffffffffffffffffffffff021916908373ffffffffffffffffffffffffffffffffffffffff1602179055508073ffffffffffffffffffffffffffffffffffffffff167ff84dfefd1424c476705a9a5ce3238cf6b203e946990646666c5bec8bc8043b2a60405160405180910390a250565b6000600260008373ffffffffffffffffffffffffffffffffffffffff1673ffffffffffffffffffffffffffffffffffffffff168152602001908152602001600020549050919050565b600080fd5b600073ffffffffffffffffffffffffffffffffffffffff82169050919050565b6000610fff82610fd4565b9050919050565b61100f81610ff4565b811461101a57600080fd5b50565b60008135905061102c81611006565b92915050565b60006020828403121561104857611047610fcf565b5b60006110568482850161101d565b91505092915050565b6000819050919050565b6110728161105f565b82525050565b600060208201905061108d6000830184611069565b92915050565b61109c8161105f565b81146110a757600080fd5b50565b6000813590506110b981611093565b92915050565b6000602082840312156110d5576110d4610fcf565b5b60006110e3848285016110aa565b91505092915050565b60008115159050919050565b611101816110ec565b82525050565b600060208201905061111c60008301846110f8565b92915050565b600081519050919050565b600082825260208201905092915050565b6000819050602082019050919050565b61115781610ff4565b82525050565b6111668161105f565b82525050565b606082016000820151611182600085018261114e565b506020820151611195602085018261115d565b5060408201516111a8604085018261115d565b50505050565b60006111ba838361116c565b60608301905092915050565b6000602082019050919050565b60006111de82611122565b6111e8818561112d565b93506111f38361113e565b8060005b8381101561122457815161120b88826111ae565b9750611216836111c6565b9250506001810190506111f7565b5085935050505092915050565b6000602082019050818103600083015261124b81846111d3565b905092915050565b61125c81610ff4565b82525050565b60006020820190506112776000830184611253565b92915050565b600081519050919050565b600082825260208201905092915050565b6000819050602082019050919050565b60006112b5838361114e565b60208301905092915050565b6000602082019050919050565b60006112d98261127d565b6112e38185611288565b93506112ee83611299565b8060005b8381101561131f57815161130688826112a9565b9750611311836112c1565b9250506001810190506112f2565b5085935050505092915050565b6000602082019050818103600083015261134681846112ce565b905092915050565b600081519050919050565b600082825260208201905092915050565b6000819050602082019050919050565b604082016000820151611390600085018261115d565b5060208201516113a3602085018261115d565b50505050565b60006113b5838361137a565b60408301905092915050565b6000602082019050919050565b60006113d98261134e565b6113e38185611359565b93506113ee8361136a565b8060005b8381101561141f57815161140688826113a9565b9750611411836113c1565b9250506001810190506113f2565b5085935050505092915050565b6000602082019050818103600083015261144681846113ce565b905092915050565b600082825260208201905092915050565b7f446f6e6174696f6e206d7573742062652067726561746572207468616e203000600082015250565b6000611495601f8361144e565b91506114a08261145f565b602082019050919050565b600060208201905081810360008301526114c481611488565b9050919050565b7f496e76616c6964206f7267616e697a6174696f6e000000000000000000000000600082015250565b600061150160148361144e565b915061150c826114cb565b602082019050919050565b60006020820190508181036000830152611530816114f4565b9050919050565b7f4e487b7100000000000000000000000000000000000000000000000000000000600052601160045260246000fd5b60006115718261105f565b915061157c8361105f565b9250827fffffffffffffffffffffffffffffffffffffffffffffffffffffffffffffffff038211156115b1576115b0611537565b5b828201905092915050565b7f4f6e6c79206f7267616e697a6174696f6e732063616e20776974686472617700600082015250565b60006115f2601f8361144e565b91506115fd826115bc565b602082019050919050565b60006020820190508181036000830152611621816115e5565b9050919050565b7f416d6f756e74206d7573742062652067726561746572207468616e207a65726f600082015250565b600061165e60208361144e565b915061166982611628565b602082019050919050565b6000602082019050818103600083015261168d81611651565b9050919050565b7f496e73756666696369656e742062616c616e6365000000000000000000000000600082015250565b60006116ca60148361144e565b91506116d582611694565b602082019050919050565b600060208201905081810360008301526116f9816116bd565b9050919050565b600061170b8261105f565b91506117168361105f565b92508282101561172957611728611537565b5b828203905092915050565b60006040820190506117496000830185611069565b6117566020830184611069565b9392505050565b7f4f6e6c79206f7267616e697a6174696f6e732063616e2076696577207468656960008201527f7220646f6e6174696f6e73000000000000000000000000000000000000000000602082015250565b60006117b9602b8361144e565b91506117c48261175d565b604082019050919050565b600060208201905081810360008301526117e8816117ac565b9050919050565b7f4f6e6c79206f7267616e697a6174696f6e732063616e2076696577207468656960008201527f72207769746864726177616c7300000000000000000000000000000000000000602082015250565b600061184b602d8361144e565b9150611856826117ef565b604082019050919050565b6000602082019050818103600083015261187a8161183e565b9050919050565b7f4f6e6c79206f776e65722063616e20616464206f7267616e697a6174696f6e73600082015250565b60006118b760208361144e565b91506118c282611881565b602082019050919050565b600060208201905081810360008301526118e6816118aa565b9050919050565b7f4f7267616e697a6174696f6e20616c7265616479206578697374730000000000600082015250565b6000611923601b8361144e565b915061192e826118ed565b602082019050919050565b6000602082019050818103600083015261195281611916565b905091905056fea2646970667358221220015e304c559e611e1647f68647c795271f49871b74d3567e86652081340013f664736f6c634300080d0033",
  "immutableReferences": {},
  "source": "// SPDX-License-Identifier: MIT\r\npragma solidity ^0.8.0;\r\n\r\ncontract Donation {\r\n    address public owner;\r\n\r\n    struct WithdrawalRecord {\r\n        uint256 amount;\r\n        uint256 timestamp;\r\n    }\r\n\r\n    struct DonationRecord {\r\n        address donor;\r\n        uint256 amount;\r\n        uint256 timestamp;\r\n    }\r\n\r\n    mapping(address => uint256) public donations;\r\n    mapping(address => uint256) public organizationBalances;\r\n    mapping(address => bool) public organizations;\r\n    mapping(address => WithdrawalRecord[]) private withdrawalHistory;\r\n    mapping(address => DonationRecord[]) private donationHistory;\r\n    address[] private organizationList;\r\n\r\n    event Donated(address indexed donor, address indexed organization, uint256 amount);\r\n    event Withdrawn(address indexed organization, uint256 amount, uint256 timestamp);\r\n    event OrganizationAdded(address indexed organization);\r\n\r\n    constructor() {\r\n        owner = msg.sender;\r\n    }\r\n\r\n    function addOrganization(address _organization) public {\r\n        require(msg.sender == owner, \"Only owner can add organizations\");\r\n        require(!organizations[_organization], \"Organization already exists\");\r\n\r\n        organizations[_organization] = true;\r\n        organizationList.push(_organization); //  Store organization in list\r\n        emit OrganizationAdded(_organization);\r\n    }\r\n\r\n    function donate(address _organization) public payable {\r\n        require(msg.value > 0, \"Donation must be greater than 0\");\r\n        require(organizations[_organization], \"Invalid organization\");\r\n\r\n        donations[msg.sender] += msg.value;\r\n        organizationBalances[_organization] += msg.value;\r\n\r\n        //  Store donation record for organization\r\n        donationHistory[_organization].push(DonationRecord(msg.sender, msg.value, block.timestamp));\r\n\r\n        emit Donated(msg.sender, _organization, msg.value);\r\n    }\r\n\r\n    function withdraw(uint256 amount) public {\r\n        require(organizations[msg.sender], \"Only organizations can withdraw\");\r\n        require(amount > 0, \"Amount must be greater than zero\");\r\n        require(organizationBalances[msg.sender] >= amount, \"Insufficient balance\");\r\n\r\n        organizationBalances[msg.sender] -= amount;\r\n\r\n        //  Store withdrawal history\r\n        withdrawalHistory[msg.sender].push(WithdrawalRecord(amount, block.timestamp));\r\n\r\n        payable(msg.sender).transfer(amount);\r\n\r\n        emit Withdrawn(msg.sender, amount, block.timestamp);\r\n    }\r\n\r\n    function getBalance(address _organization) public view returns (uint256) {\r\n        return organizationBalances[_organization];\r\n    }\r\n\r\n    function isOrganization(address _user) public view returns (bool) {\r\n        return organizations[_user];\r\n    }\r\n\r\n    function getTotalDonations(address _donor) public view returns (uint256) {\r\n        return donations[_donor];\r\n    }\r\n\r\n    function getWithdrawalHistory() public view returns (WithdrawalRecord[] memory) {\r\n        require(organizations[msg.sender], \"Only organizations can view their withdrawals\");\r\n        return withdrawalHistory[msg.sender];\r\n    }\r\n\r\n    //  **New function: Get all registered organizations**\r\n    function getOrganizations() public view returns (address[] memory) {\r\n        return organizationList;\r\n    }\r\n\r\n    //  **New function: Get donation history for the logged-in organization**\r\n    function getDonationsForOrganization() public view returns (DonationRecord[] memory) {\r\n        require(organizations[msg.sender], \"Only organizations can view their donations\");\r\n        return donationHistory[msg.sender];\r\n    }\r\n}\r\n",
  "sourcePath": "C:\\Users\\Pen Reyes\\Downloads\\blockchain-app\\decentralized-charity\\contracts\\Donation.sol",
  "compiler": {
    "name": "solc",
    "version": "0.8.13+commit.abaa5c0e.Emscripten.clang"
  },
  "schemaVersion": "3.4.16",
  "updatedAt": "2025-03-18T11:13:02.016Z",
  "networkType": "ethereum",
  "devdoc": {
    "kind": "dev",
    "methods": {},
    "version": 1
  },
  "userdoc": {
    "kind": "user",
    "methods": {},
    "version": 1
  }
}