{
  "contractName": "DonationToken",
  "abi": [
    {
      "inputs": [],
      "stateMutability": "nonpayable",
      "type": "constructor"
    },
    {
      "anonymous": false,
      "inputs": [
        {
          "indexed": true,
          "internalType": "address",
          "name": "owner",
          "type": "address"
        },
        {
          "indexed": true,
          "internalType": "address",
          "name": "spender",
          "type": "address"
        },
        {
          "indexed": false,
          "internalType": "uint256",
          "name": "value",
          "type": "uint256"
        }
      ],
      "name": "Approval",
      "type": "event"
    },
    {
      "anonymous": false,
      "inputs": [
        {
          "indexed": true,
          "internalType": "address",
          "name": "previousOwner",
          "type": "address"
        },
        {
          "indexed": true,
          "internalType": "address",
          "name": "newOwner",
          "type": "address"
        }
      ],
      "name": "OwnershipTransferred",
      "type": "event"
    },
    {
      "anonymous": false,
      "inputs": [
        {
          "indexed": true,
          "internalType": "address",
          "name": "from",
          "type": "address"
        },
        {
          "indexed": true,
          "internalType": "address",
          "name": "to",
          "type": "address"
        },
        {
          "indexed": false,
          "internalType": "uint256",
          "name": "value",
          "type": "uint256"
        }
      ],
      "name": "Transfer",
      "type": "event"
    },
    {
      "inputs": [],
      "name": "MAX_SUPPLY",
      "outputs": [
        {
          "internalType": "uint256",
          "name": "",
          "type": "uint256"
        }
      ],
      "stateMutability": "view",
      "type": "function",
      "constant": true
    },
    {
      "inputs": [
        {
          "internalType": "address",
          "name": "owner",
          "type": "address"
        },
        {
          "internalType": "address",
          "name": "spender",
          "type": "address"
        }
      ],
      "name": "allowance",
      "outputs": [
        {
          "internalType": "uint256",
          "name": "",
          "type": "uint256"
        }
      ],
      "stateMutability": "view",
      "type": "function",
      "constant": true
    },
    {
      "inputs": [
        {
          "internalType": "address",
          "name": "spender",
          "type": "address"
        },
        {
          "internalType": "uint256",
          "name": "amount",
          "type": "uint256"
        }
      ],
      "name": "approve",
      "outputs": [
        {
          "internalType": "bool",
          "name": "",
          "type": "bool"
        }
      ],
      "stateMutability": "nonpayable",
      "type": "function"
    },
    {
      "inputs": [
        {
          "internalType": "address",
          "name": "account",
          "type": "address"
        }
      ],
      "name": "balanceOf",
      "outputs": [
        {
          "internalType": "uint256",
          "name": "",
          "type": "uint256"
        }
      ],
      "stateMutability": "view",
      "type": "function",
      "constant": true
    },
    {
      "inputs": [],
      "name": "decimals",
      "outputs": [
        {
          "internalType": "uint8",
          "name": "",
          "type": "uint8"
        }
      ],
      "stateMutability": "view",
      "type": "function",
      "constant": true
    },
    {
      "inputs": [
        {
          "internalType": "address",
          "name": "spender",
          "type": "address"
        },
        {
          "internalType": "uint256",
          "name": "subtractedValue",
          "type": "uint256"
        }
      ],
      "name": "decreaseAllowance",
      "outputs": [
        {
          "internalType": "bool",
          "name": "",
          "type": "bool"
        }
      ],
      "stateMutability": "nonpayable",
      "type": "function"
    },
    {
      "inputs": [
        {
          "internalType": "address",
          "name": "spender",
          "type": "address"
        },
        {
          "internalType": "uint256",
          "name": "addedValue",
          "type": "uint256"
        }
      ],
      "name": "increaseAllowance",
      "outputs": [
        {
          "internalType": "bool",
          "name": "",
          "type": "bool"
        }
      ],
      "stateMutability": "nonpayable",
      "type": "function"
    },
    {
      "inputs": [],
      "name": "name",
      "outputs": [
        {
          "internalType": "string",
          "name": "",
          "type": "string"
        }
      ],
      "stateMutability": "view",
      "type": "function",
      "constant": true
    },
    {
      "inputs": [],
      "name": "owner",
      "outputs": [
        {
          "internalType": "address",
          "name": "",
          "type": "address"
        }
      ],
      "stateMutability": "view",
      "type": "function",
      "constant": true
    },
    {
      "inputs": [],
      "name": "renounceOwnership",
      "outputs": [],
      "stateMutability": "nonpayable",
      "type": "function"
    },
    {
      "inputs": [],
      "name": "symbol",
      "outputs": [
        {
          "internalType": "string",
          "name": "",
          "type": "string"
        }
      ],
      "stateMutability": "view",
      "type": "function",
      "constant": true
    },
    {
      "inputs": [],
      "name": "totalSupply",
      "outputs": [
        {
          "internalType": "uint256",
          "name": "",
          "type": "uint256"
        }
      ],
      "stateMutability": "view",
      "type": "function",
      "constant": true
    },
    {
      "inputs": [
        {
          "internalType": "address",
          "name": "to",
          "type": "address"
        },
        {
          "internalType": "uint256",
          "name": "amount",
          "type": "uint256"
        }
      ],
      "name": "transfer",
      "outputs": [
        {
          "internalType": "bool",
          "name": "",
          "type": "bool"
        }
      ],
      "stateMutability": "nonpayable",
      "type": "function"
    },
    {
      "inputs": [
        {
          "internalType": "address",
          "name": "from",
          "type": "address"
        },
        {
          "internalType": "address",
          "name": "to",
          "type": "address"
        },
        {
          "internalType": "uint256",
          "name": "amount",
          "type": "uint256"
        }
      ],
      "name": "transferFrom",
      "outputs": [
        {
          "internalType": "bool",
          "name": "",
          "type": "bool"
        }
      ],
      "stateMutability": "nonpayable",
      "type": "function"
    },
    {
      "inputs": [
        {
          "internalType": "address",
          "name": "newOwner",
          "type": "address"
        }
      ],
      "name": "transferOwnership",
      "outputs": [],
      "stateMutability": "nonpayable",
      "type": "function"
    },
    {
      "inputs": [
        {
          "internalType": "address",
          "name": "to",
          "type": "address"
        },
        {
          "internalType": "uint256",
          "name": "amount",
          "type": "uint256"
        }
      ],
      "name": "mint",
      "outputs": [],
      "stateMutability": "nonpayable",
      "type": "function"
    },
    {
      "inputs": [
        {
          "internalType": "address",
          "name": "donor",
          "type": "address"
        },
        {
          "internalType": "uint256",
          "name": "amount",
          "type": "uint256"
        }
      ],
      "name": "mintForDonation",
      "outputs": [],
      "stateMutability": "nonpayable",
      "type": "function"
    },
    {
      "inputs": [
        {
          "internalType": "uint256",
          "name": "amount",
          "type": "uint256"
        }
      ],
      "name": "burn",
      "outputs": [],
      "stateMutability": "nonpayable",
      "type": "function"
    },
    {
      "inputs": [
        {
          "internalType": "address",
          "name": "contractAddress",
          "type": "address"
        },
        {
          "internalType": "bool",
          "name": "approved",
          "type": "bool"
        }
      ],
      "name": "setDonationContract",
      "outputs": [],
      "stateMutability": "nonpayable",
      "type": "function"
    },
    {
      "inputs": [
        {
          "internalType": "address",
          "name": "contractAddress",
          "type": "address"
        }
      ],
      "name": "isApprovedDonationContract",
      "outputs": [
        {
          "internalType": "bool",
          "name": "",
          "type": "bool"
        }
      ],
      "stateMutability": "view",
      "type": "function",
      "constant": true
    }
  ],
  "bytecode": "0x60806040523480156200001157600080fd5b506040518060400160405280600e81526020016d2237b730ba34b7b7102a37b5b2b760911b8152506040518060400160405280600381526020016244544b60e81b81525081600390805190602001906200006d929190620001fa565b50805162000083906004906020840190620001fa565b505050620000a06200009a620000bc60201b60201c565b620000c0565b620000b63369d3c21bcecceda100000062000112565b62000303565b3390565b600580546001600160a01b038381166001600160a01b0319831681179093556040519116919082907f8be0079c531659141344cd1fd0a4f28419497f9722a3daafe3b4186f6b6457e090600090a35050565b6001600160a01b0382166200016d5760405162461bcd60e51b815260206004820152601f60248201527f45524332303a206d696e7420746f20746865207a65726f206164647265737300604482015260640160405180910390fd5b8060026000828254620001819190620002a0565b90915550506001600160a01b03821660009081526020819052604081208054839290620001b0908490620002a0565b90915550506040518181526001600160a01b038316906000907fddf252ad1be2c89b69c2b068fc378daa952ba7f163c4a11628f55a4df523b3ef9060200160405180910390a35050565b8280546200020890620002c7565b90600052602060002090601f0160209004810192826200022c576000855562000277565b82601f106200024757805160ff191683800117855562000277565b8280016001018555821562000277579182015b82811115620002775782518255916020019190600101906200025a565b506200028592915062000289565b5090565b5b808211156200028557600081556001016200028a565b60008219821115620002c257634e487b7160e01b600052601160045260246000fd5b500190565b600181811c90821680620002dc57607f821691505b602082108103620002fd57634e487b7160e01b600052602260045260246000fd5b50919050565b610ef080620003136000396000f3fe608060405234801561001057600080fd5b506004361061012c5760003560e01c806370a08231116100ad578063a9059cbb11610071578063a9059cbb1461026e578063befd7cf014610281578063dd62ed3e146102ad578063f2304596146102c0578063f2fde38b146102d357600080fd5b806370a0823114610207578063715018a6146102305780638da5cb5b1461023857806395d89b4114610253578063a457c2d71461025b57600080fd5b8063313ce567116100f4578063313ce567146101ac57806332cb6b0c146101bb57806339509351146101ce57806340c10f19146101e157806342966c68146101f457600080fd5b806306fdde0314610131578063095ea7b31461014f57806309d99bb71461017257806318160ddd1461018757806323b872dd14610199575b600080fd5b6101396102e6565b6040516101469190610cba565b60405180910390f35b61016261015d366004610d2b565b610378565b6040519015158152602001610146565b610185610180366004610d2b565b610390565b005b6002545b604051908152602001610146565b6101626101a7366004610d55565b6104a1565b60405160128152602001610146565b61018b6b204fce5e3e2502611000000081565b6101626101dc366004610d2b565b6104c5565b6101856101ef366004610d2b565b6104e7565b610185610202366004610d91565b6104ef565b61018b610215366004610daa565b6001600160a01b031660009081526020819052604090205490565b6101856104fc565b6005546040516001600160a01b039091168152602001610146565b610139610510565b610162610269366004610d2b565b61051f565b61016261027c366004610d2b565b61059a565b61016261028f366004610daa565b6001600160a01b031660009081526006602052604090205460ff1690565b61018b6102bb366004610dcc565b6105a8565b6101856102ce366004610dff565b6105d3565b6101856102e1366004610daa565b610606565b6060600380546102f590610e3b565b80601f016020809104026020016040519081016040528092919081815260200182805461032190610e3b565b801561036e5780601f106103435761010080835404028352916020019161036e565b820191906000526020600020905b81548152906001019060200180831161035157829003601f168201915b5050505050905090565b60003361038681858561067c565b5060019392505050565b6005546001600160a01b03163314806103b857503360009081526006602052604090205460ff165b6104245760405162461bcd60e51b815260206004820152603260248201527f4f6e6c79206f776e6572206f7220617070726f76656420646f6e6174696f6e2060448201527118dbdb9d1c9858dd1cc818d85b881b5a5b9d60721b60648201526084015b60405180910390fd5b6b204fce5e3e250261100000008161043b60025490565b6104459190610e8b565b11156104935760405162461bcd60e51b815260206004820152601760248201527f576f756c6420657863656564206d617820737570706c79000000000000000000604482015260640161041b565b61049d82826107a1565b5050565b6000336104af858285610880565b6104ba8585856108fa565b506001949350505050565b6000336103868185856104d883836105a8565b6104e29190610e8b565b61067c565b610424610ac8565b6104f93382610b22565b50565b610504610ac8565b61050e6000610c68565b565b6060600480546102f590610e3b565b6000338161052d82866105a8565b90508381101561058d5760405162461bcd60e51b815260206004820152602560248201527f45524332303a2064656372656173656420616c6c6f77616e63652062656c6f77604482015264207a65726f60d81b606482015260840161041b565b6104ba828686840361067c565b6000336103868185856108fa565b6001600160a01b03918216600090815260016020908152604080832093909416825291909152205490565b6105db610ac8565b6001600160a01b03919091166000908152600660205260409020805460ff1916911515919091179055565b61060e610ac8565b6001600160a01b0381166106735760405162461bcd60e51b815260206004820152602660248201527f4f776e61626c653a206e6577206f776e657220697320746865207a65726f206160448201526564647265737360d01b606482015260840161041b565b6104f981610c68565b6001600160a01b0383166106de5760405162461bcd60e51b8152602060048201526024808201527f45524332303a20617070726f76652066726f6d20746865207a65726f206164646044820152637265737360e01b606482015260840161041b565b6001600160a01b03821661073f5760405162461bcd60e51b815260206004820152602260248201527f45524332303a20617070726f766520746f20746865207a65726f206164647265604482015261737360f01b606482015260840161041b565b6001600160a01b0383811660008181526001602090815260408083209487168084529482529182902085905590518481527f8c5be1e5ebec7d5bd14f71427d1e84f3dd0314c0f7b2291e5b200ac8c7c3b92591015b60405180910390a3505050565b6001600160a01b0382166107f75760405162461bcd60e51b815260206004820152601f60248201527f45524332303a206d696e7420746f20746865207a65726f206164647265737300604482015260640161041b565b80600260008282546108099190610e8b565b90915550506001600160a01b03821660009081526020819052604081208054839290610836908490610e8b565b90915550506040518181526001600160a01b038316906000907fddf252ad1be2c89b69c2b068fc378daa952ba7f163c4a11628f55a4df523b3ef9060200160405180910390a35050565b600061088c84846105a8565b905060001981146108f457818110156108e75760405162461bcd60e51b815260206004820152601d60248201527f45524332303a20696e73756666696369656e7420616c6c6f77616e6365000000604482015260640161041b565b6108f4848484840361067c565b50505050565b6001600160a01b03831661095e5760405162461bcd60e51b815260206004820152602560248201527f45524332303a207472616e736665722066726f6d20746865207a65726f206164604482015264647265737360d81b606482015260840161041b565b6001600160a01b0382166109c05760405162461bcd60e51b815260206004820152602360248201527f45524332303a207472616e7366657220746f20746865207a65726f206164647260448201526265737360e81b606482015260840161041b565b6001600160a01b03831660009081526020819052604090205481811015610a385760405162461bcd60e51b815260206004820152602660248201527f45524332303a207472616e7366657220616d6f756e7420657863656564732062604482015265616c616e636560d01b606482015260840161041b565b6001600160a01b03808516600090815260208190526040808220858503905591851681529081208054849290610a6f908490610e8b565b92505081905550826001600160a01b0316846001600160a01b03167fddf252ad1be2c89b69c2b068fc378daa952ba7f163c4a11628f55a4df523b3ef84604051610abb91815260200190565b60405180910390a36108f4565b6005546001600160a01b0316331461050e5760405162461bcd60e51b815260206004820181905260248201527f4f776e61626c653a2063616c6c6572206973206e6f7420746865206f776e6572604482015260640161041b565b6001600160a01b038216610b825760405162461bcd60e51b815260206004820152602160248201527f45524332303a206275726e2066726f6d20746865207a65726f206164647265736044820152607360f81b606482015260840161041b565b6001600160a01b03821660009081526020819052604090205481811015610bf65760405162461bcd60e51b815260206004820152602260248201527f45524332303a206275726e20616d6f756e7420657863656564732062616c616e604482015261636560f01b606482015260840161041b565b6001600160a01b0383166000908152602081905260408120838303905560028054849290610c25908490610ea3565b90915550506040518281526000906001600160a01b038516907fddf252ad1be2c89b69c2b068fc378daa952ba7f163c4a11628f55a4df523b3ef90602001610794565b600580546001600160a01b038381166001600160a01b0319831681179093556040519116919082907f8be0079c531659141344cd1fd0a4f28419497f9722a3daafe3b4186f6b6457e090600090a35050565b600060208083528351808285015260005b81811015610ce757858101830151858201604001528201610ccb565b81811115610cf9576000604083870101525b50601f01601f1916929092016040019392505050565b80356001600160a01b0381168114610d2657600080fd5b919050565b60008060408385031215610d3e57600080fd5b610d4783610d0f565b946020939093013593505050565b600080600060608486031215610d6a57600080fd5b610d7384610d0f565b9250610d8160208501610d0f565b9150604084013590509250925092565b600060208284031215610da357600080fd5b5035919050565b600060208284031215610dbc57600080fd5b610dc582610d0f565b9392505050565b60008060408385031215610ddf57600080fd5b610de883610d0f565b9150610df660208401610d0f565b90509250929050565b60008060408385031215610e1257600080fd5b610e1b83610d0f565b915060208301358015158114610e3057600080fd5b809150509250929050565b600181811c90821680610e4f57607f821691505b602082108103610e6f57634e487b7160e01b600052602260045260246000fd5b50919050565b634e487b7160e01b600052601160045260246000fd5b60008219821115610e9e57610e9e610e75565b500190565b600082821015610eb557610eb5610e75565b50039056fea26469706673582212202ef7ade95f566259ae6d6a8213fe465ff7137e8dd1945e464b44865af22684ff64736f6c634300080d0033",
  "immutableReferences": {},
  "source": "// SPDX-License-Identifier: MIT\r\npragma solidity ^0.8.0;\r\n\r\nimport \"@openzeppelin/contracts/token/ERC20/ERC20.sol\";\r\nimport \"@openzeppelin/contracts/access/Ownable.sol\";\r\n\r\ncontract DonationToken is ERC20, Ownable {\r\n    uint256 public constant MAX_SUPPLY = 10_000_000_000 * 10**18; // 1 billion tokens with 18 decimals\r\n\r\n    constructor() ERC20(\"Donation Token\", \"DTK\") {\r\n        _mint(msg.sender, 1000000 * 10**18);\r\n    }\r\n\r\n    function mint(address to, uint256 amount) public onlyOwner {\r\n        require(totalSupply() + amount <= MAX_SUPPLY, \"Would exceed max supply\");\r\n        _mint(to, amount);\r\n    }\r\n\r\n    function mintForDonation(address donor, uint256 amount) external {\r\n        require(msg.sender == owner() || isApprovedDonationContract(msg.sender), \r\n                \"Only owner or approved donation contracts can mint\");\r\n        require(totalSupply() + amount <= MAX_SUPPLY, \"Would exceed max supply\");\r\n\r\n        _mint(donor, amount);\r\n    }\r\n\r\n    //  New burn function to allow token burning\r\n    function burn(uint256 amount) external {\r\n        _burn(msg.sender, amount);\r\n    }\r\n\r\n    //  Approved Donation Contracts\r\n    mapping(address => bool) private approvedDonationContracts;\r\n\r\n    function setDonationContract(address contractAddress, bool approved) external onlyOwner {\r\n        approvedDonationContracts[contractAddress] = approved;\r\n    }\r\n\r\n    function isApprovedDonationContract(address contractAddress) public view returns (bool) {\r\n        return approvedDonationContracts[contractAddress];\r\n    }\r\n}\r\n",
  "sourcePath": "C:\\Users\\Pen Reyes\\Downloads\\blockchain-app\\decentralized-charity\\contracts\\DonationToken.sol",
  "compiler": {
    "name": "solc",
    "version": "0.8.13+commit.abaa5c0e.Emscripten.clang"
  },
  "schemaVersion": "3.4.16",
  "updatedAt": "2025-03-18T15:44:43.730Z",
  "networkType": "ethereum",
  "devdoc": {
    "kind": "dev",
    "methods": {
      "allowance(address,address)": {
        "details": "See {IERC20-allowance}."
      },
      "approve(address,uint256)": {
        "details": "See {IERC20-approve}. NOTE: If `amount` is the maximum `uint256`, the allowance is not updated on `transferFrom`. This is semantically equivalent to an infinite approval. Requirements: - `spender` cannot be the zero address."
      },
      "balanceOf(address)": {
        "details": "See {IERC20-balanceOf}."
      },
      "decimals()": {
        "details": "Returns the number of decimals used to get its user representation. For example, if `decimals` equals `2`, a balance of `505` tokens should be displayed to a user as `5.05` (`505 / 10 ** 2`). Tokens usually opt for a value of 18, imitating the relationship between Ether and Wei. This is the value {ERC20} uses, unless this function is overridden; NOTE: This information is only used for _display_ purposes: it in no way affects any of the arithmetic of the contract, including {IERC20-balanceOf} and {IERC20-transfer}."
      },
      "decreaseAllowance(address,uint256)": {
        "details": "Atomically decreases the allowance granted to `spender` by the caller. This is an alternative to {approve} that can be used as a mitigation for problems described in {IERC20-approve}. Emits an {Approval} event indicating the updated allowance. Requirements: - `spender` cannot be the zero address. - `spender` must have allowance for the caller of at least `subtractedValue`."
      },
      "increaseAllowance(address,uint256)": {
        "details": "Atomically increases the allowance granted to `spender` by the caller. This is an alternative to {approve} that can be used as a mitigation for problems described in {IERC20-approve}. Emits an {Approval} event indicating the updated allowance. Requirements: - `spender` cannot be the zero address."
      },
      "name()": {
        "details": "Returns the name of the token."
      },
      "owner()": {
        "details": "Returns the address of the current owner."
      },
      "renounceOwnership()": {
        "details": "Leaves the contract without owner. It will not be possible to call `onlyOwner` functions anymore. Can only be called by the current owner. NOTE: Renouncing ownership will leave the contract without an owner, thereby removing any functionality that is only available to the owner."
      },
      "symbol()": {
        "details": "Returns the symbol of the token, usually a shorter version of the name."
      },
      "totalSupply()": {
        "details": "See {IERC20-totalSupply}."
      },
      "transfer(address,uint256)": {
        "details": "See {IERC20-transfer}. Requirements: - `to` cannot be the zero address. - the caller must have a balance of at least `amount`."
      },
      "transferFrom(address,address,uint256)": {
        "details": "See {IERC20-transferFrom}. Emits an {Approval} event indicating the updated allowance. This is not required by the EIP. See the note at the beginning of {ERC20}. NOTE: Does not update the allowance if the current allowance is the maximum `uint256`. Requirements: - `from` and `to` cannot be the zero address. - `from` must have a balance of at least `amount`. - the caller must have allowance for ``from``'s tokens of at least `amount`."
      },
      "transferOwnership(address)": {
        "details": "Transfers ownership of the contract to a new account (`newOwner`). Can only be called by the current owner."
      }
    },
    "version": 1
  },
  "userdoc": {
    "kind": "user",
    "methods": {},
    "version": 1
  }
}