{
  "contractName": "Donation",
  "abi": [
    {
      "inputs": [
        {
          "internalType": "address",
          "name": "_tokenAddress",
          "type": "address"
        }
      ],
      "stateMutability": "nonpayable",
      "type": "constructor"
    },
    {
      "anonymous": false,
      "inputs": [
        {
          "indexed": true,
          "internalType": "address",
          "name": "donor",
          "type": "address"
        },
        {
          "indexed": true,
          "internalType": "address",
          "name": "organization",
          "type": "address"
        },
        {
          "indexed": false,
          "internalType": "uint256",
          "name": "amount",
          "type": "uint256"
        }
      ],
      "name": "Donated",
      "type": "event"
    },
    {
      "anonymous": false,
      "inputs": [
        {
          "indexed": true,
          "internalType": "address",
          "name": "organization",
          "type": "address"
        }
      ],
      "name": "OrganizationAdded",
      "type": "event"
    },
    {
      "anonymous": false,
      "inputs": [
        {
          "indexed": true,
          "internalType": "address",
          "name": "donor",
          "type": "address"
        },
        {
          "indexed": false,
          "internalType": "uint256",
          "name": "tokenAmount",
          "type": "uint256"
        }
      ],
      "name": "Rewarded",
      "type": "event"
    },
    {
      "anonymous": false,
      "inputs": [
        {
          "indexed": true,
          "internalType": "address",
          "name": "organization",
          "type": "address"
        },
        {
          "indexed": false,
          "internalType": "uint256",
          "name": "amount",
          "type": "uint256"
        },
        {
          "indexed": false,
          "internalType": "uint256",
          "name": "timestamp",
          "type": "uint256"
        }
      ],
      "name": "Withdrawn",
      "type": "event"
    },
    {
      "inputs": [
        {
          "internalType": "address",
          "name": "",
          "type": "address"
        }
      ],
      "name": "donations",
      "outputs": [
        {
          "internalType": "uint256",
          "name": "",
          "type": "uint256"
        }
      ],
      "stateMutability": "view",
      "type": "function",
      "constant": true
    },
    {
      "inputs": [
        {
          "internalType": "address",
          "name": "",
          "type": "address"
        }
      ],
      "name": "organizationBalances",
      "outputs": [
        {
          "internalType": "uint256",
          "name": "",
          "type": "uint256"
        }
      ],
      "stateMutability": "view",
      "type": "function",
      "constant": true
    },
    {
      "inputs": [
        {
          "internalType": "address",
          "name": "",
          "type": "address"
        }
      ],
      "name": "organizations",
      "outputs": [
        {
          "internalType": "bool",
          "name": "",
          "type": "bool"
        }
      ],
      "stateMutability": "view",
      "type": "function",
      "constant": true
    },
    {
      "inputs": [],
      "name": "owner",
      "outputs": [
        {
          "internalType": "address",
          "name": "",
          "type": "address"
        }
      ],
      "stateMutability": "view",
      "type": "function",
      "constant": true
    },
    {
      "inputs": [],
      "name": "token",
      "outputs": [
        {
          "internalType": "contract DonationToken",
          "name": "",
          "type": "address"
        }
      ],
      "stateMutability": "view",
      "type": "function",
      "constant": true
    },
    {
      "inputs": [
        {
          "internalType": "address",
          "name": "_organization",
          "type": "address"
        }
      ],
      "name": "addOrganization",
      "outputs": [],
      "stateMutability": "nonpayable",
      "type": "function"
    },
    {
      "inputs": [
        {
          "internalType": "address",
          "name": "_organization",
          "type": "address"
        }
      ],
      "name": "donate",
      "outputs": [],
      "stateMutability": "payable",
      "type": "function",
      "payable": true
    },
    {
      "inputs": [
        {
          "internalType": "uint256",
          "name": "amount",
          "type": "uint256"
        }
      ],
      "name": "withdraw",
      "outputs": [],
      "stateMutability": "nonpayable",
      "type": "function"
    },
    {
      "inputs": [
        {
          "internalType": "address",
          "name": "_organization",
          "type": "address"
        }
      ],
      "name": "getBalance",
      "outputs": [
        {
          "internalType": "uint256",
          "name": "",
          "type": "uint256"
        }
      ],
      "stateMutability": "view",
      "type": "function",
      "constant": true
    },
    {
      "inputs": [
        {
          "internalType": "address",
          "name": "_user",
          "type": "address"
        }
      ],
      "name": "isOrganization",
      "outputs": [
        {
          "internalType": "bool",
          "name": "",
          "type": "bool"
        }
      ],
      "stateMutability": "view",
      "type": "function",
      "constant": true
    },
    {
      "inputs": [
        {
          "internalType": "address",
          "name": "_donor",
          "type": "address"
        }
      ],
      "name": "getTotalDonations",
      "outputs": [
        {
          "internalType": "uint256",
          "name": "",
          "type": "uint256"
        }
      ],
      "stateMutability": "view",
      "type": "function",
      "constant": true
    },
    {
      "inputs": [],
      "name": "getWithdrawalHistory",
      "outputs": [
        {
          "components": [
            {
              "internalType": "uint256",
              "name": "amount",
              "type": "uint256"
            },
            {
              "internalType": "uint256",
              "name": "timestamp",
              "type": "uint256"
            }
          ],
          "internalType": "struct Donation.WithdrawalRecord[]",
          "name": "",
          "type": "tuple[]"
        }
      ],
      "stateMutability": "view",
      "type": "function",
      "constant": true
    },
    {
      "inputs": [],
      "name": "getOrganizations",
      "outputs": [
        {
          "internalType": "address[]",
          "name": "",
          "type": "address[]"
        }
      ],
      "stateMutability": "view",
      "type": "function",
      "constant": true
    },
    {
      "inputs": [],
      "name": "getDonationsForOrganization",
      "outputs": [
        {
          "components": [
            {
              "internalType": "address",
              "name": "donor",
              "type": "address"
            },
            {
              "internalType": "uint256",
              "name": "amount",
              "type": "uint256"
            },
            {
              "internalType": "uint256",
              "name": "timestamp",
              "type": "uint256"
            }
          ],
          "internalType": "struct Donation.DonationRecord[]",
          "name": "",
          "type": "tuple[]"
        }
      ],
      "stateMutability": "view",
      "type": "function",
      "constant": true
    },
    {
      "inputs": [
        {
          "internalType": "uint256",
          "name": "amount",
          "type": "uint256"
        }
      ],
      "name": "fundContract",
      "outputs": [],
      "stateMutability": "nonpayable",
      "type": "function"
    },
    {
      "inputs": [],
      "name": "setupTokenPermissions",
      "outputs": [],
      "stateMutability": "nonpayable",
      "type": "function"
    }
  ],
  "bytecode": "0x608060405234801561001057600080fd5b506040516111b73803806111b783398101604081905261002f91610062565b60008054336001600160a01b031991821617909155600180549091166001600160a01b0392909216919091179055610092565b60006020828403121561007457600080fd5b81516001600160a01b038116811461008b57600080fd5b9392505050565b611116806100a16000396000f3fe6080604052600436106100f25760003560e01c80639754a3a81161008a578063cc6cb19a11610059578063cc6cb19a146102ee578063d68287df1461031b578063f8b2cb4f1461033b578063fc0c546a1461037157600080fd5b80639754a3a81461025c578063a4ffc5f91461027e578063b1ce8eab14610293578063c0894cfa146102cc57600080fd5b806357cfb10a116100c657806357cfb10a146101955780635a1f7406146101c25780636a776ce1146102025780638da5cb5b1461022457600080fd5b8062362a95146100f7578063115ac45a1461010c5780632e1a7d4d146101555780633519a2f814610175575b600080fd5b61010a610105366004610ee5565b610391565b005b34801561011857600080fd5b50610142610127366004610ee5565b6001600160a01b031660009081526002602052604090205490565b6040519081526020015b60405180910390f35b34801561016157600080fd5b5061010a610170366004610f15565b61072a565b34801561018157600080fd5b5061010a610190366004610f15565b6108ff565b3480156101a157600080fd5b506101426101b0366004610ee5565b60036020526000908152604090205481565b3480156101ce57600080fd5b506101f26101dd366004610ee5565b60046020526000908152604090205460ff1681565b604051901515815260200161014c565b34801561020e57600080fd5b50610217610a8e565b60405161014c9190610f2e565b34801561023057600080fd5b50600054610244906001600160a01b031681565b6040516001600160a01b03909116815260200161014c565b34801561026857600080fd5b50610271610b8c565b60405161014c9190610f90565b34801561028a57600080fd5b5061010a610bee565b34801561029f57600080fd5b506101f26102ae366004610ee5565b6001600160a01b031660009081526004602052604090205460ff1690565b3480156102d857600080fd5b506102e1610cae565b60405161014c9190610fdd565b3480156102fa57600080fd5b50610142610309366004610ee5565b60026020526000908152604090205481565b34801561032757600080fd5b5061010a610336366004610ee5565b610d96565b34801561034757600080fd5b50610142610356366004610ee5565b6001600160a01b031660009081526003602052604090205490565b34801561037d57600080fd5b50600154610244906001600160a01b031681565b600034116103e65760405162461bcd60e51b815260206004820152601f60248201527f446f6e6174696f6e206d7573742062652067726561746572207468616e20300060448201526064015b60405180910390fd5b6001600160a01b03811660009081526004602052604090205460ff166104455760405162461bcd60e51b815260206004820152601460248201527324b73b30b634b21037b933b0b734bd30ba34b7b760611b60448201526064016103dd565b3360009081526002602052604081208054349290610464908490611035565b90915550506001600160a01b03811660009081526003602052604081208054349290610491908490611035565b90915550506001600160a01b0381811660008181526006602090815260408083208151606081018352338082523482860181815242848701908152855460018082018855968a52988890209451600390990290940180546001600160a01b03191698909a1697909717895595519288019290925551600290960195909555519182529192917f4dfff917e1fbb261a082e98cc7d43029621f6a6eb05ff3fef1510d5f1eb4857c910160405180910390a36000670de0b6b3a7640000610558346103e861104d565b61056a90670de0b6b3a764000061104d565b610574919061106c565b6001546040516309d99bb760e01b8152336004820152602481018390529192506001600160a01b0316906309d99bb790604401600060405180830381600087803b1580156105c157600080fd5b505af19250505080156105d2575060015b6106f8576001546040516370a0823160e01b815230600482015282916001600160a01b0316906370a0823190602401602060405180830381865afa15801561061e573d6000803e3d6000fd5b505050506040513d601f19601f82011682018060405250810190610642919061108e565b106106f45760015460405163a9059cbb60e01b8152336004820152602481018390526001600160a01b039091169063a9059cbb906044016020604051808303816000875af1158015610698573d6000803e3d6000fd5b505050506040513d601f19601f820116820180604052508101906106bc91906110a7565b5060405181815233907fb3b7a071186534c03b40695710096f289fd4ed6c1a374aff0bb648955e4fe563906020015b60405180910390a25b5050565b60405181815233907fb3b7a071186534c03b40695710096f289fd4ed6c1a374aff0bb648955e4fe563906020016106eb565b3360009081526004602052604090205460ff166107895760405162461bcd60e51b815260206004820152601f60248201527f4f6e6c79206f7267616e697a6174696f6e732063616e2077697468647261770060448201526064016103dd565b600081116107d95760405162461bcd60e51b815260206004820181905260248201527f416d6f756e74206d7573742062652067726561746572207468616e207a65726f60448201526064016103dd565b3360009081526003602052604090205481111561082f5760405162461bcd60e51b8152602060048201526014602482015273496e73756666696369656e742062616c616e636560601b60448201526064016103dd565b336000908152600360205260408120805483929061084e9084906110c9565b9091555050336000818152600560209081526040808320815180830183528681524281850190815282546001818101855593875294862091516002909502909101938455519201919091555183156108fc0291849190818181858888f193505050501580156108c1573d6000803e3d6000fd5b506040805182815242602082015233917f92ccf450a286a957af52509bc1c9939d1a6a481783e142e41e2499f0bb66ebc6910160405180910390a250565b6000546001600160a01b031633146109595760405162461bcd60e51b815260206004820152601c60248201527f4f6e6c79206f776e65722063616e2066756e6420636f6e74726163740000000060448201526064016103dd565b6001546040516370a0823160e01b815233600482015282916001600160a01b0316906370a0823190602401602060405180830381865afa1580156109a1573d6000803e3d6000fd5b505050506040513d601f19601f820116820180604052508101906109c5919061108e565b1015610a135760405162461bcd60e51b815260206004820152601a60248201527f496e73756666696369656e7420746f6b656e2062616c616e636500000000000060448201526064016103dd565b6001546040516323b872dd60e01b8152336004820152306024820152604481018390526001600160a01b03909116906323b872dd906064016020604051808303816000875af1158015610a6a573d6000803e3d6000fd5b505050506040513d601f19601f820116820180604052508101906106f491906110a7565b3360009081526004602052604090205460609060ff16610b045760405162461bcd60e51b815260206004820152602b60248201527f4f6e6c79206f7267616e697a6174696f6e732063616e2076696577207468656960448201526a7220646f6e6174696f6e7360a81b60648201526084016103dd565b33600090815260066020908152604080832080548251818502810185019093528083529193909284015b82821015610b83576000848152602090819020604080516060810182526003860290920180546001600160a01b0316835260018082015484860152600290910154918301919091529083529092019101610b2e565b50505050905090565b60606007805480602002602001604051908101604052809291908181526020018280548015610be457602002820191906000526020600020905b81546001600160a01b03168152600190910190602001808311610bc6575b5050505050905090565b6000546001600160a01b03163314610c485760405162461bcd60e51b815260206004820181905260248201527f4f6e6c79206f776e65722063616e207365747570207065726d697373696f6e7360448201526064016103dd565b6001805460405163791822cb60e11b815230600482015260248101929092526001600160a01b03169063f230459690604401600060405180830381600087803b158015610c9457600080fd5b505af1158015610ca8573d6000803e3d6000fd5b50505050565b3360009081526004602052604090205460609060ff16610d265760405162461bcd60e51b815260206004820152602d60248201527f4f6e6c79206f7267616e697a6174696f6e732063616e2076696577207468656960448201526c72207769746864726177616c7360981b60648201526084016103dd565b33600090815260056020908152604080832080548251818502810185019093528083529193909284015b82821015610b8357838290600052602060002090600202016040518060400160405290816000820154815260200160018201548152505081526020019060010190610d50565b6000546001600160a01b03163314610df05760405162461bcd60e51b815260206004820181905260248201527f4f6e6c79206f776e65722063616e20616464206f7267616e697a6174696f6e7360448201526064016103dd565b6001600160a01b03811660009081526004602052604090205460ff1615610e595760405162461bcd60e51b815260206004820152601b60248201527f4f7267616e697a6174696f6e20616c726561647920657869737473000000000060448201526064016103dd565b6001600160a01b038116600081815260046020526040808220805460ff1916600190811790915560078054918201815583527fa66cc928b5edb82af9bd49922954155ab7b0942694bea4ce44661d9a8736c6880180546001600160a01b03191684179055517ff84dfefd1424c476705a9a5ce3238cf6b203e946990646666c5bec8bc8043b2a9190a250565b600060208284031215610ef757600080fd5b81356001600160a01b0381168114610f0e57600080fd5b9392505050565b600060208284031215610f2757600080fd5b5035919050565b602080825282518282018190526000919060409081850190868401855b82811015610f8357815180516001600160a01b0316855286810151878601528501518585015260609093019290850190600101610f4b565b5091979650505050505050565b6020808252825182820181905260009190848201906040850190845b81811015610fd15783516001600160a01b031683529284019291840191600101610fac565b50909695505050505050565b602080825282518282018190526000919060409081850190868401855b82811015610f8357815180518552860151868501529284019290850190600101610ffa565b634e487b7160e01b600052601160045260246000fd5b600082198211156110485761104861101f565b500190565b60008160001904831182151516156110675761106761101f565b500290565b60008261108957634e487b7160e01b600052601260045260246000fd5b500490565b6000602082840312156110a057600080fd5b5051919050565b6000602082840312156110b957600080fd5b81518015158114610f0e57600080fd5b6000828210156110db576110db61101f565b50039056fea2646970667358221220c9222f0b871d75469f54854d588b849c7108993a1faf0831678f96826d0cde8a64736f6c634300080d0033",
  "immutableReferences": {},
  "source": "// SPDX-License-Identifier: MIT\r\npragma solidity ^0.8.0;\r\n\r\nimport \"./DonationToken.sol\";\r\n\r\ncontract Donation {\r\n    address public owner;\r\n    DonationToken public token;\r\n\r\n    struct WithdrawalRecord {\r\n        uint256 amount;\r\n        uint256 timestamp;\r\n    }\r\n\r\n    struct DonationRecord {\r\n        address donor;\r\n        uint256 amount;\r\n        uint256 timestamp;\r\n    }\r\n\r\n    mapping(address => uint256) public donations;\r\n    mapping(address => uint256) public organizationBalances;\r\n    mapping(address => bool) public organizations;\r\n    mapping(address => WithdrawalRecord[]) private withdrawalHistory;\r\n    mapping(address => DonationRecord[]) private donationHistory;\r\n    address[] private organizationList;\r\n\r\n    event Donated(address indexed donor, address indexed organization, uint256 amount);\r\n    event Withdrawn(address indexed organization, uint256 amount, uint256 timestamp);\r\n    event OrganizationAdded(address indexed organization);\r\n    event Rewarded(address indexed donor, uint256 tokenAmount);\r\n\r\n    constructor(address _tokenAddress) {\r\n        owner = msg.sender;\r\n        token = DonationToken(_tokenAddress);\r\n    }\r\n\r\n    function addOrganization(address _organization) public {\r\n        require(msg.sender == owner, \"Only owner can add organizations\");\r\n        require(!organizations[_organization], \"Organization already exists\");\r\n\r\n        organizations[_organization] = true;\r\n        organizationList.push(_organization);\r\n        emit OrganizationAdded(_organization);\r\n    }\r\n\r\n    function donate(address _organization) public payable {\r\n    require(msg.value > 0, \"Donation must be greater than 0\");\r\n    require(organizations[_organization], \"Invalid organization\");\r\n\r\n    donations[msg.sender] += msg.value;\r\n    organizationBalances[_organization] += msg.value;\r\n    donationHistory[_organization].push(DonationRecord(msg.sender, msg.value, block.timestamp));\r\n\r\n    emit Donated(msg.sender, _organization, msg.value);\r\n\r\n    //  Correct ETH to DTK conversion (1 DTK per 0.001 ETH)\r\n    uint256 rewardAmount = (msg.value * 1000 * 10**18) / 1 ether; \r\n\r\n    //  Mint tokens directly to donor (ensuring decimals match)\r\n    try token.mintForDonation(msg.sender, rewardAmount) {\r\n        emit Rewarded(msg.sender, rewardAmount);\r\n    } catch {\r\n        //  Fallback: If minting fails, transfer existing tokens\r\n        if (token.balanceOf(address(this)) >= rewardAmount) {\r\n            token.transfer(msg.sender, rewardAmount);\r\n            emit Rewarded(msg.sender, rewardAmount);\r\n        }\r\n    }\r\n}\r\n\r\n\r\n    function withdraw(uint256 amount) public {\r\n        require(organizations[msg.sender], \"Only organizations can withdraw\");\r\n        require(amount > 0, \"Amount must be greater than zero\");\r\n        require(organizationBalances[msg.sender] >= amount, \"Insufficient balance\");\r\n\r\n        organizationBalances[msg.sender] -= amount;\r\n        withdrawalHistory[msg.sender].push(WithdrawalRecord(amount, block.timestamp));\r\n\r\n        payable(msg.sender).transfer(amount);\r\n        emit Withdrawn(msg.sender, amount, block.timestamp);\r\n    }\r\n\r\n    function getBalance(address _organization) public view returns (uint256) {\r\n        return organizationBalances[_organization];\r\n    }\r\n\r\n    function isOrganization(address _user) public view returns (bool) {\r\n        return organizations[_user];\r\n    }\r\n\r\n    function getTotalDonations(address _donor) public view returns (uint256) {\r\n        return donations[_donor];\r\n    }\r\n\r\n    function getWithdrawalHistory() public view returns (WithdrawalRecord[] memory) {\r\n        require(organizations[msg.sender], \"Only organizations can view their withdrawals\");\r\n        return withdrawalHistory[msg.sender];\r\n    }\r\n\r\n    function getOrganizations() public view returns (address[] memory) {\r\n        return organizationList;\r\n    }\r\n\r\n    function getDonationsForOrganization() public view returns (DonationRecord[] memory) {\r\n        require(organizations[msg.sender], \"Only organizations can view their donations\");\r\n        return donationHistory[msg.sender];\r\n    }\r\n\r\n    // Owner can still fund contract with DTK tokens if needed\r\n    function fundContract(uint256 amount) public {\r\n        require(msg.sender == owner, \"Only owner can fund contract\");\r\n        require(token.balanceOf(msg.sender) >= amount, \"Insufficient token balance\");\r\n\r\n        token.transferFrom(msg.sender, address(this), amount);\r\n    }\r\n    \r\n    // Initialize the token contract to allow this contract to mint tokens\r\n    function setupTokenPermissions() external {\r\n        require(msg.sender == owner, \"Only owner can setup permissions\");\r\n        token.setDonationContract(address(this), true);\r\n    }\r\n}",
  "sourcePath": "C:\\Users\\Pen Reyes\\Downloads\\blockchain-app\\decentralized-charity\\contracts\\Donation.sol",
  "compiler": {
    "name": "solc",
    "version": "0.8.13+commit.abaa5c0e.Emscripten.clang"
  },
  "schemaVersion": "3.4.16",
  "updatedAt": "2025-03-18T15:44:43.709Z",
  "networkType": "ethereum",
  "devdoc": {
    "kind": "dev",
    "methods": {},
    "version": 1
  },
  "userdoc": {
    "kind": "user",
    "methods": {},
    "version": 1
  }
}